:020000040800F2
:10000000005000209D0A0008410A0008470A000825
:100010004D0A0008530A0008590A000800000000B1
:100020000000000000000000000000005F0A00085F
:100030006B0A000800000000770A0008830A000825
:10004000E50A0008E50A0008E50A0008E50A0008D4
:10005000E50A0008E50A0008E50A0008E50A0008C4
:10006000E50A0008E50A0008E50A0008E50A0008B4
:10007000E50A0008E50A0008E50A0008E50A0008A4
:10008000E50A0008E50A0008E50A0008E50A000894
:10009000E50A0008E50A0008E50A0008E50A000884
:1000A000E50A0008E50A0008E50A0008E50A000874
:1000B000E50A0008E50A0008E50A0008E50A000864
:1000C000E50A0008E50A0008E50A0008E50A000854
:1000D000E50A0008E50A0008E50A0008E50A000844
:1000E000E50A0008E50A0008E50A0008000000002B
:1000F0000000000000000000000000000000000000
:0C01000000000000000000005FF808F1A3
:10010C0010B5054C237833B9044B13B10448AFF345
:10011C0000800123237010BD0C00002000000000A3
:10012C008024000808B5034B1BB103490348AFF307
:10013C00008008BD00000000100000208024000892
:10014C0080B588B000AF00233B7100237B71002386
:10015C00BB710023FB7100233B7000237B700023D9
:10016C00BB700023FB7000233B7700237B770023BD
:10017C00BB770023FB7700233B7608237B76002399
:10018C00BB760023FB7600233B7500237B75002395
:10019C00BB750023FB7500233B7400237B74002389
:1001AC00BB740023FB7400233B7300237B7300237D
:1001BC00BB730023FB7300233B7208237B72002369
:1001CC00BB720023FB7200F041F9034683F001037C
:1001DC00DBB2002B01D000235EE000F059F903469E
:1001EC0083F00103DBB2002B01D0002354E03B1D54
:1001FC001A462321202000F0EFF93B461A4627210E
:10020C00242000F0E9F907F11C031A460321002011
:10021C0000F0E2F907F118031A460721042000F058
:10022C00DBF907F114031A460B21082000F0D4F96E
:10023C0007F110031A461321102000F0CDF907F135
:10024C000C031A461721142000F0C6F907F1080315
:10025C001A461B21182000F0BFF90421602000F081
:10026C0097F90121702000F093F900212A2000F069
:10027C008FF9E521292000F08BF98321282000F04B
:10028C0087F900F023F9034683F00103DBB2002B5E
:10029C0001D0002300E0012318462037BD4680BD65
:1002AC0080B588B000AF78600023FB7700F0BEF912
:1002BC0003463B733B7B23F03F03DBB2002B66D042
:1002CC003B7B23F03F03DBB2402B0CBF012300230D
:1002DC00DAB23B7B23F03F03DBB2C02B0CBF012314
:1002EC000023DBB21343DBB2002B07D007F1100362
:1002FC000D221946902000F029F90CE03B7B23F0ED
:10030C003F03DBB2802B06D107F110030D221946F7
:10031C00942000F01BF93B7B03F01803DBB2102B8D
:10032C000CD17B6802221A70B87CF97C3A7C7B7CFD
:10033C0000F032F802467B685A600BE07B680122C1
:10034C001A703B7C7A7C1146184600F063F8024622
:10035C007B685A603A7D7B681A727A7D7B685A7228
:10036C00BA7D7B689A72FA7D7B68DA723A7E7B681A
:10037C001A737A7E7B685A73BA7E7B689A73FA7E9C
:10038C007B68DA733A7F7B681A740123FB77FB7FF7
:10039C0018462037BD4680BD90B486B000AF0446E9
:1003AC00084611461A462346FB710346BB710B46A1
:1003BC007B7113463B7100237B6100233B613B79CE
:1003CC0003F00303FB733B795B09BB737B79DB00A5
:1003DC003B61BB7B3A6913443B613B699B003B61CE
:1003EC00FB7B3A6913443B613B691B023B61FB7924
:1003FC003A6913443B613B691B023B61BB793A6927
:10040C0013443B613B697B617B6918461837BD46D9
:10041C0090BC704780B485B000AF03460A46FB71B0
:10042C001346BB710023FB60FB79DB00BB60BB791F
:10043C005B09DBB21A46BB681344BB60BB68FB604C
:10044C00FB6818461437BD4680BC704780B582B037
:10045C0000AF012210210C4800F02EFE0A23FB7184
:10046C000A4801F0C1FE0346012B01D1012306E02D
:10047C00FB79013BFB71FB79002BF1D10023184672
:10048C000837BD4680BD00BF000801402800002091
:10049C0080B582B000AF80210F2000F079F80A23DC
:1004AC00FB710E2000F030F8034603F0E003802BC4
:1004BC0001D1012306E0FB79013BFB71FB79002B99
:1004CC00EFD1002318460837BD4680BD80B582B0F9
:1004DC0000AF00210F2000F05BF80A23FB710E2007
:1004EC0000F012F8034603F0E003002B01D10123C6
:1004FC0006E0FB79013BFB71FB79002BEFD100236C
:10050C0018460837BD4680BD80B584B000AF0346A1
:10051C00FB71002210210C4800F0CEFD032000F0EE
:10052C00A1F8FB79184600F09DF800F0C1F80346DD
:10053C00FB7301221021044800F0BEFDFB7B184622
:10054C001037BD4680BD00BF0008014080B582B0A9
:10055C0000AF03463960FB711346BB7100221021BA
:10056C000A4800F0A9FDFB79184600F07BF8BB792E
:10057C001946386800F0ACF801221021034800F04D
:10058C009BFD00BF0837BD4680BD00BF0008014081
:10059C0080B582B000AF03460A46FB711346BB71AF
:1005AC00002210210B4800F087FD022000F05AF8C1
:1005BC00FB79184600F056F8BB79184600F052F853
:1005CC0001221021034800F077FD00BF0837BD461B
:1005DC0080BD00BF0008014080B582B000AF03466B
:1005EC003A60FB710B46BB71002210210E4800F0E3
:1005FC0063FD022000F036F8FB79184600F032F863
:10060C00BA79FB79D31ADBB20133DBB219463868FD
:10061C0000F03AF801221021034800F04DFD00BF14
:10062C000837BD4680BD00BF0008014080B582B0D0
:10063C0000AF002210210A4800F03EFDB02000F06F
:10064C0011F800F035F80346FB7101221021044823
:10065C0000F032FDFB7918460837BD4680BD00BF5F
:10066C000008014080B582B000AF0346FB71F91D54
:10067C000A230122034801F0B1F900BF0837BD4637
:10068C0080BD00BF2800002080B582B000AF78602C
:10069C000B46FB70FB789AB20A237968034801F089
:1006AC009DF900BF0837BD4680BD00BF2800002063
:1006BC0080B582B000AFF91D0A230122034801F076
:1006CC00D1FAFB7918460837BD4680BD28000020BA
:1006DC0080B582B000AF78600B46FB70FB789AB2A5
:1006EC000A237968034801F0BDFA00BF0837BD46FC
:1006FC0080BD00BF2800002080B582B000AF00F0A4
:10070C00EDF900F031F800F0ABF800F073F8FFF7FA
:10071C0017FD1248FFF7C4FD0346002B1AD00F4BF0
:10072C005B6840F2031293420FD10A237B6007E00F
:10073C004FF400710A4800F0D7FC322000F030FA78
:10074C007B685A1E7A60002BF2D14FF40051054899
:10075C0000F0CAFC642000F023FADAE780000020E5
:10076C00000801400010014080B590B000AF07F1C7
:10077C00180328220021184601F074FE3B1D0022AC
:10078C001A605A609A60DA601A610123BB614FF4F7
:10079C008033FB6100233B620123BB6202237B633A
:1007AC004FF48033BB634FF4E013FB6307F1180382
:1007BC00184600F0B3FC0346002B01D000F0B8F84B
:1007CC000F237B600223BB600023FB604FF480632C
:1007DC003B6100237B613B1D0221184600F01EFF8C
:1007EC000346002B01D000F0A3F800BF4037BD46F4
:1007FC0080BD000080B500AF174B184A1A60164B2D
:10080C004FF482725A60144B00229A60124B0022F1
:10081C00DA60114B00221A610F4B00225A610E4B09
:10082C004FF400729A610C4B1022DA610A4B0022D1
:10083C001A62094B00225A62074B00229A62064B3D
:10084C000A22DA62044801F045F80346002B01D075
:10085C0000F06EF800BF80BD280000200030014081
:10086C0080B588B000AF07F1100300221A605A60FF
:10087C009A60DA602B4B9B692A4A43F01003936110
:10088C00284B9B6903F01003FB60FB68254B9B69AD
:10089C00244A43F020039361224B9B6903F020030D
:1008AC00BB60BB681F4B9B691E4A43F004039361FA
:1008BC001C4B9B6903F004037B607B6800224FF4A4
:1008CC000051194800F0F8FB01221021174800F0E4
:1008DC00F3FB00224FF44071144800F0EDFB4FF491
:1008EC0000533B6101237B610023BB610123FB614E
:1008FC0007F1100319460C4800F05AFA4FF44473F0
:10090C003B6101237B610023BB610123FB6107F188
:10091C0010031946054800F04BFA00BF2037BD46BE
:10092C0080BD00BF001002400010014000080140D3
:10093C0080B400AF72B600BFFEE7000080B485B093
:10094C0000AF154B9B69144A43F001039361124BA2
:10095C009B6903F00103BB60BB680F4BDB690E4A5C
:10096C0043F08053D3610C4BDB6903F080537B6005
:10097C007B680A4B5B68FB60FB6823F0E063FB6001
:10098C00FB6843F00073FB60044AFB68536000BFD4
:10099C001437BD4680BC7047001002400000014077
:1009AC0080B588B000AF786007F1100300221A60A0
:1009BC005A609A60DA607B681B681B4A93422FD19D
:1009CC001A4B9B69194A43F480539361174B9B69EB
:1009DC0003F48053FB60FB68144B9B69134A43F090
:1009EC0004039361114B9B6903F00403BB60BB6868
:1009FC00A0233B6102237B610323FB6107F11003FE
:100A0C0019460B4800F0D4F940233B6100237B616D
:100A1C000023BB6107F110031946054800F0C8F923
:100A2C0000BF2037BD4680BD0030014000100240A1
:100A3C000008014080B400AFFEE780B400AFFEE7D1
:100A4C0080B400AFFEE780B400AFFEE780B400AF27
:100A5C00FEE780B400AF00BFBD4680BC704780B4D9
:100A6C0000AF00BFBD4680BC704780B400AF00BF74
:100A7C00BD4680BC704780B500AF00F075F800BF74
:100A8C0080BD80B400AF00BFBD4680BC7047000085
:100A9C00FFF7F7FF0B480C490C4A002302E0D4582F
:100AAC00C4500433C4188C42F9D3094A094C0023AE
:100ABC0001E013600432A242FBD301F0AFFCFFF75C
:100ACC001BFE7047000000200C000020C42400080E
:100ADC000C00002098000020FEE7000080B500AF5D
:100AEC00084B1B68074A43F010031360032000F007
:100AFC002BF90F2000F008F8FFF720FF0023184611
:100B0C0080BD00BF0020024080B582B000AF78608D
:100B1C00124B1A68124B1B7819464FF47A73B3FBBD
:100B2C00F1F3B2FBF3F3184600F035F90346002B52
:100B3C0001D001230EE07B680F2B0AD800227968C4
:100B4C004FF0FF3000F00BF9064A7B68136000236E
:100B5C0000E0012318460837BD4680BD0000002088
:100B6C00080000200400002080B400AF054B1B7867
:100B7C001A46054B1B681344034A136000BFBD465D
:100B8C0080BC7047080000209400002080B400AFA7
:100B9C00024B1B681846BD4680BC70479400002071
:100BAC0080B584B000AF7860FFF7F0FFB8607B6869
:100BBC00FB60FB68B3F1FF3F05D00A4B1B781A466C
:100BCC00FB681344FB6000BFFFF7E0FF0246BB6805
:100BDC00D31AFA689A42F7D800BF00BF1037BD4647
:100BEC0080BD00BF0800002080B485B000AF7860E5
:100BFC007B6803F00703FB600C4BDB68BB60BA68D7
:100C0C004FF6FF031340BB60FB681A02BB6813432B
:100C1C0043F0BF6343F40033BB60044ABB68D3604A
:100C2C0000BF1437BD4680BC704700BF00ED00E02C
:100C3C0080B400AF044BDB681B0A03F007031846B3
:100C4C00BD4680BC704700BF00ED00E080B483B0AF
:100C5C0000AF03463960FB7197F90730002B0ADBB4
:100C6C003B68DAB20C4997F907301201D2B20B4447
:100C7C0083F800230AE03B68DAB20849FB7903F0F9
:100C8C000F03043B1201D2B20B441A7600BF0C378F
:100C9C00BD4680BC704700BF00E100E000ED00E005
:100CAC0080B489B000AFF860B9607A60FB6803F07B
:100CBC000703FB61FB69C3F10703042B28BF042363
:100CCC00BB61FB690433062B02D9FB69033B00E0D3
:100CDC0000237B614FF0FF32BB6902FA03F3DA4366
:100CEC00BB681A407B699A404FF0FF317B6901FA6F
:100CFC0003F3D9437B680B40134318462437BD4696
:100D0C0080BC704780B582B000AF78607B68013BD7
:100D1C00B3F1807F01D301230FE00A4A7B68013BCA
:100D2C0053600F214FF0FF30FFF790FF054B00226F
:100D3C009A60044B07221A60002318460837BD46F8
:100D4C0080BD00BF10E000E080B582B000AF7860DD
:100D5C007868FFF749FF00BF0837BD4680BD80B5F6
:100D6C0086B000AF0346B9607A60FB7300237B61E9
:100D7C00FFF75EFF78617A68B9687869FFF790FFD2
:100D8C00024697F90F3011461846FFF75FFF00BF78
:100D9C001837BD4680BD80B582B000AF78607868EA
:100DAC00FFF7B0FF034618460837BD4680BD00006C
:100DBC0080B48BB000AF7860396000237B62002375
:100DCC003B6269E101227B6A02FA03F3FB613B6837
:100DDC001B68FA691340BB61BA69FB699A4240F01F
:100DEC0058813B685B689A4A93425ED0984A93421A
:100DFC0075D8984A934258D0964A93426FD8964ADF
:100E0C00934252D0944A934269D8944A93424CD01C
:100E1C00924A934263D8924A934246D0904A934264
:100E2C005DD8122B2AD8122B59D801A252F823F0D4
:100E3C00B70E0008910E0008A30E0008E50E00087E
:100E4C00EB0E0008EB0E0008EB0E0008EB0E000892
:100E5C00EB0E0008EB0E0008EB0E0008EB0E000882
:100E6C00EB0E0008EB0E0008EB0E0008EB0E000872
:100E7C00EB0E0008990E0008AD0E0008794A93425B
:100E8C0013D02CE03B68DB683B6229E03B68DB68F5
:100E9C0004333B6224E03B68DB6808333B621FE0B1
:100EAC003B68DB680C333B621AE03B689B68002BA9
:100EBC0002D104233B6213E03B689B68012B05D1F4
:100ECC0008233B627B68FA691A6109E008233B62DC
:100EDC007B68FA695A6103E000233B6200E000BFC3
:100EEC00BB69FF2B01D87B6801E07B6804337B6115
:100EFC00BB69FF2B02D87B6A9B0002E07B6A083B34
:100F0C009B003B617B691A680F213B6901FA03F373
:100F1C00DB431A40396A3B6901FA03F31A437B69D4
:100F2C001A603B685B6803F08053002B00F0B180C3
:100F3C004D4B9B694C4A43F0010393614A4B9B69AF
:100F4C0003F00103BB60BB68484A7B6A9B08023311
:100F5C0052F82330FB607B6A03F003039B000F22E3
:100F6C0002FA03F3DB43FA681340FB607B68404AE8
:100F7C00934213D07B683F4A93420DD07B683E4A24
:100F8C00934207D07B683D4A934201D1032306E08C
:100F9C00042304E0022302E0012300E000237A6A28
:100FAC0002F0030292009340FA681343FB602F494E
:100FBC007B6A9B080233FA6841F823203B685B6824
:100FCC0003F48013002B06D02D4B9A682C49BB6977
:100FDC0013438B6006E02A4B9A68BB69DB432849B4
:100FEC0013408B603B685B6803F40013002B06D046
:100FFC00234BDA682249BB691343CB6006E0204BD4
:10100C00DA68BB69DB431E491340CB603B685B6805
:10101C0003F40033002B06D0194B5A681849BB69EE
:10102C0013434B6006E0164B5A68BB69DB4314490B
:10103C0013404B603B685B6803F48033002B21D07A
:10104C000F4B1A680E49BB6913430B6021E000BFBC
:10105C00000032100000311000002210000021109E
:10106C00000012100000111000100240000001409E
:10107C0000080140000C0140001001400014014028
:10108C00000401400B4B1A68BB69DB430949134050
:10109C000B607B6A01337B623B681A687B6A22FABD
:1010AC0003F3002B7FF48EAE00BF00BF2C37BD4680
:1010BC0080BC70470004014080B483B000AF7860FE
:1010CC000B467B8013467B707B78002B03D07A8891
:1010DC007B681A6103E07B881A047B681A6100BF85
:1010EC000C37BD4680BC704780B485B000AF7860CB
:1010FC000B467B807B68DB68FB607A88FB6813405F
:10110C001A04FB68D9437B880B401A437B681A612D
:10111C0000BF1437BD4680BC7047000080B586B058
:10112C0000AF78607B68002B01D101236CE27B68F7
:10113C001B6803F00103002B00F08780924B5B6867
:10114C0003F00C03042B0CD08F4B5B6803F00C03E7
:10115C00082B12D18C4B5B6803F48033B3F5803FC2
:10116C000BD1894B1B6803F40033002B6CD07B68CC
:10117C005B68002B68D1012346E27B685B68B3F5A2
:10118C00803F06D1804B1B687F4A43F48033136049
:10119C002EE07B685B68002B0CD17B4B1B687A4A7A
:1011AC0023F480331360784B1B68774A23F4802335
:1011BC0013601DE07B685B68B3F5A02F0CD1724BFC
:1011CC001B68714A43F4802313606F4B1B686E4A93
:1011DC0043F4803313600BE06B4B1B686A4A23F4B7
:1011EC0080331360684B1B68674A23F480231360B9
:1011FC007B685B68002B13D0FFF7C8FC386108E0F4
:10120C00FFF7C4FC02463B69D31A642B01D90323B4
:10121C00FAE15D4B1B6803F40033002BF0D014E0B3
:10122C00FFF7B4FC386108E0FFF7B0FC02463B69FD
:10123C00D31A642B01D90323E6E1534B1B6803F447
:10124C000033002BF0D100E000BF7B681B6803F07B
:10125C000203002B63D04C4B5B6803F00C03002B98
:10126C000BD0494B5B6803F00C03082B1CD1464B8D
:10127C005B6803F48033002B16D1434B1B6803F0DF
:10128C000203002B05D07B681B69012B01D00123C5
:10129C00BAE13D4B1B6823F0F8027B685B69DB000D
:1012AC00394913430B603AE07B681B69002B20D053
:1012BC00364B01221A60FFF769FC386108E0FFF732
:1012CC0065FC02463B69D31A022B01D903239BE12F
:1012DC002D4B1B6803F00203002BF0D02A4B1B682C
:1012EC0023F0F8027B685B69DB00274913430B6032
:1012FC0015E0264B00221A60FFF748FC386108E025
:10130C00FFF744FC02463B69D31A022B01D9032395
:10131C007AE11D4B1B6803F00203002BF0D17B68B4
:10132C001B6803F00803002B3AD07B689B69002BE9
:10133C0019D0174B01221A60FFF728FC386108E01E
:10134C00FFF724FC02463B69D31A022B01D9032375
:10135C005AE10D4B5B6A03F00203002BF0D0012025
:10136C0000F09AFA1CE00A4B00221A60FFF70EFC00
:10137C0038610FE0FFF70AFC02463B69D31A022BD7
:10138C0008D9032340E100BF001002400000424294
:10139C00800442429E4B5B6A03F00203002BE9D1AE
:1013AC007B681B6803F00403002B00F0A68000236D
:1013BC00FB75974BDB6903F08053002B0DD1944BDD
:1013CC00DB69934A43F08053D361914BDB6903F0A3
:1013DC008053BB60BB680123FB758E4B1B6803F409
:1013EC008073002B18D18B4B1B688A4A43F4807393
:1013FC001360FFF7CBFB386108E0FFF7C7FB024631
:10140C003B69D31A642B01D90323FDE0814B1B6884
:10141C0003F48073002BF0D07B68DB68012B06D1C2
:10142C007B4B1B6A7A4A43F0010313622DE07B6805
:10143C00DB68002B0CD1764B1B6A754A23F0010339
:10144C001362734B1B6A724A23F0040313621CE091
:10145C007B68DB68052B0CD16D4B1B6A6C4A43F027
:10146C00040313626A4B1B6A694A43F0010313625B
:10147C000BE0674B1B6A664A23F001031362644B53
:10148C001B6A634A23F0040313627B68DB68002B3E
:10149C0015D0FFF77BFB38610AE0FFF777FB0246BC
:1014AC003B69D31A41F28832934201D90323ABE052
:1014BC00574B1B6A03F00203002BEED014E0FFF72E
:1014CC0065FB38610AE0FFF761FB02463B69D31A02
:1014DC0041F28832934201D9032395E04C4B1B6AAD
:1014EC0003F00203002BEED1FB7D012B05D1484B01
:1014FC00DB69474A23F08053D3617B68DB69002B9F
:10150C0000F08180424B5B6803F00C03082B61D028
:10151C007B68DB69022B46D13F4B00221A60FFF738
:10152C0035FB386108E0FFF731FB02463B69D31A03
:10153C00022B01D9032367E0354B1B6803F00073C2
:10154C00002BF0D17B681B6AB3F5803F08D1304B80
:10155C005B6823F400327B689B682D4913434B6016
:10156C002B4B5B6823F474127B68196A7B685B6A8B
:10157C000B43274913434B60274B01221A60FFF79B
:10158C0005FB386108E0FFF701FB02463B69D31A03
:10159C00022B01D9032337E01D4B1B6803F00073AA
:1015AC00002BF0D02FE01C4B00221A60FFF7EEFA54
:1015BC00386108E0FFF7EAFA02463B69D31A022BBE
:1015CC0001D9032320E0124B1B6803F00073002B9E
:1015DC00F0D118E07B68DB69012B01D1012313E00A
:1015EC000B4B5B68FB60FB6803F480327B681B6A07
:1015FC009A4206D1FB6803F470127B685B6A9A42CC
:10160C0001D0012300E0002318461837BD4680BDE9
:10161C0000100240007000406000424280B584B06F
:10162C0000AF786039607B68002B01D10123D0E0DA
:10163C006A4B1B6803F007033A689A4210D9674B50
:10164C001B6823F0070265493B6813430B60634B2F
:10165C001B6803F007033A689A4201D00123B8E0F3
:10166C007B681B6803F00203002B20D07B681B688F
:10167C0003F00403002B05D0594B5B68584A43F424
:10168C00E06353607B681B6803F00803002B05D0F4
:10169C00534B5B68524A43F460535360504B5B6846
:1016AC0023F0F0027B689B684D4913434B607B68C9
:1016BC001B6803F00103002B40D07B685B68012B97
:1016CC0007D1474B1B6803F40033002B15D10123C2
:1016DC007FE07B685B68022B07D1414B1B6803F0F2
:1016EC000073002B09D1012373E03D4B1B6803F001
:1016FC000203002B01D101236BE0394B5B6823F013
:10170C0003027B685B68364913434B60FFF73EFA74
:10171C00F8600AE0FFF73AFA0246FB68D31A41F286
:10172C008832934201D9032353E02D4B5B6803F0BD
:10173C000C027B685B689B009A42EBD1274B1B68C1
:10174C0003F007033A689A4210D2244B1B6823F02B
:10175C00070222493B6813430B60204B1B6803F0C4
:10176C0007033A689A4201D0012332E07B681B6878
:10177C0003F00403002B08D0194B5B6823F4E062E0
:10178C007B68DB68164913434B607B681B6803F06E
:10179C000803002B09D0124B5B6823F460527B6862
:1017AC001B69DB000E4913434B6000F021F8024625
:1017BC000B4B5B681B0903F00F030A49CB5C22FA45
:1017CC0003F3094A1360094B1B681846FFF79CF991
:1017DC00002318461037BD4680BD00BF00200240D4
:1017EC000010024098240008000000200400002093
:1017FC0080B487B000AF0023FB600023BB600023E4
:10180C007B6100237B6000233B611E4B5B68FB60AC
:10181C00FB6803F00C03042B02D0082B03D027E049
:10182C00194B3B6127E0FB689B0C03F00F03174A35
:10183C00D35C7B60FB6803F48033002B10D0114B1E
:10184C005B685B0C03F00103114AD35CBB607B68E3
:10185C000D4A02FB03F2BB68B2FBF3F37B6104E0BD
:10186C007B680C4A02FB03F37B617B693B6102E002
:10187C00054B3B6100BF3B6918461C37BD4680BC1D
:10188C00704700BF0010024000127A00A824000824
:10189C00B824000800093D0080B485B000AF786022
:1018AC000A4B1B680A4AA2FB03235B0A7A6802FBF9
:1018BC0003F3FB6000BFFB685A1EFA60002BF9D1E2
:1018CC0000BF00BF1437BD4680BC7047000000202D
:1018DC00D34D621080B582B000AF78607B68002B6E
:1018EC0001D1012376E07B685B6A002B08D17B6811
:1018FC005B68B3F5827F09D07B680022DA6105E072
:10190C007B6800221A617B6800225A617B68002286
:10191C009A627B6893F85130DBB2002B06D17B685E
:10192C00002283F850207868FFF73AF87B6802228F
:10193C0083F851207B681B681A687B681B6822F04F
:10194C0040021A607B685B6803F482727B689B6858
:10195C0003F404431A437B68DB6803F400631A4303
:10196C007B681B6903F002031A437B685B6903F015
:10197C0001031A437B689B6903F400731A437B6869
:10198C00DB6903F038031A437B681B6A03F080039E
:10199C0042EA03017B689B6A03F400527B681B6874
:1019AC000A431A607B689B691A0C7B681B6802F0FF
:1019BC0004025A607B681B68DA697B681B6822F436
:1019CC000062DA617B6800225A657B68012283F829
:1019DC005120002318460837BD4680BD80B588B01D
:1019EC0000AFF860B9603B601346FB80FFF7CEF8A0
:1019FC00F861FB887B83FB6893F85130DBB2012BD9
:101A0C0001D002232AE1BB68002B02D0FB88002BFB
:101A1C0001D1012322E1FB6893F85030012B01D155
:101A2C0002231BE1FB68012283F85020FB68032290
:101A3C0083F85120FB6800225A65FB68BA681A6368
:101A4C00FB68FA889A86FB68FA88DA86FB680022BB
:101A5C009A63FB6800229A87FB680022DA87FB688E
:101A6C0000225A64FB6800221A64FB689B68B3F579
:101A7C00004F0FD1FB681B681A68FB681B6822F0CB
:101A8C0040021A60FB681B681A68FB681B6842F40A
:101A9C0080421A60FB681B681B6803F04003402BF4
:101AAC0007D0FB681B681A68FB681B6842F0400291
:101ABC001A60FB68DB68B3F5006F52D1FB685B689A
:101ACC00002B02D07B8B012B45D1FB681B6B1A883A
:101ADC00FB681B68DA60FB681B6B9A1CFB681A635B
:101AEC00FB68DB8E9BB2013B9AB2FB68DA8632E074
:101AFC00FB681B689B6803F00203022B12D1FB6886
:101B0C001B6B1A88FB681B68DA60FB681B6B9A1CE2
:101B1C00FB681A63FB68DB8E9BB2013B9AB2FB68D5
:101B2C00DA8618E0FFF732F80246FB69D31A3A68F6
:101B3C009A4203D83B68B3F1FF3F02D13B68002BBC
:101B4C0009D1FB68012283F85120FB68002283F83D
:101B5C005020032382E0FB68DB8E9BB2002BC7D1A5
:101B6C0053E0FB685B68002B02D07B8B012B47D1C9
:101B7C00FB681A6BFB681B680C3312781A70FB68D5
:101B8C001B6B5A1CFB681A63FB68DB8E9BB2013B18
:101B9C009AB2FB68DA8633E0FB681B689B6803F03B
:101BAC000203022B13D1FB681A6BFB681B680C3306
:101BBC0012781A70FB681B6B5A1CFB681A63FB6863
:101BCC00DB8E9BB2013B9AB2FB68DA8618E0FEF71B
:101BDC00DDFF0246FB69D31A3A689A4203D83B6888
:101BEC00B3F1FF3F02D13B68002B09D1FB68012206
:101BFC0083F85120FB68002283F8502003232DE04A
:101C0C00FB68DB8E9BB2002BC6D1FA693968F86889
:101C1C0000F0D2FB0346002B02D0FB6820225A6551
:101C2C00FB689B68002B0AD100237B61FB681B6857
:101C3C00DB687B61FB681B689B687B617B69FB686D
:101C4C00012283F85120FB68002283F85020FB68A6
:101C5C005B6D002B01D0012300E0002318462037D8
:101C6C00BD4680BD80B588B002AFF860B9603B60FE
:101C7C001346FB80FB6893F85130DBB2012B01D08B
:101C8C00022304E1FB685B68B3F5827F12D1FB6829
:101C9C009B68002B0ED1FB68042283F85120FA8834
:101CAC003B6800931346BA68B968F86800F0F3F81B
:101CBC000346ECE0FEF76AFF7861BB68002B02D0AC
:101CCC00FB88002B01D10123E1E0FB6893F8503035
:101CDC00012B01D10223DAE0FB68012283F85020AA
:101CEC00FB68042283F85120FB6800225A65FB68CC
:101CFC00BA689A63FB68FA889A87FB68FA88DA876D
:101D0C00FB6800221A63FB6800229A86FB6800229B
:101D1C00DA86FB6800221A64FB6800225A64FB68AE
:101D2C009B68B3F5004F0FD1FB681B681A68FB6802
:101D3C001B6822F040021A60FB681B681A68FB687B
:101D4C001B6822F480421A60FB681B681B6803F056
:101D5C004003402B07D0FB681B681A68FB681B68A4
:101D6C0042F040021A60FB68DB68002B70D135E052
:101D7C00FB681B689B6803F00103012B15D1FB6802
:101D8C001B6803F10C02FB689B6B1278D2B21A70C1
:101D9C00FB689B6B5A1CFB689A63FB68DB8F9BB2DE
:101DAC00013B9AB2FB68DA8718E0FEF7EFFE0246B9
:101DBC007B69D31A3A689A4203D83B68B3F1FF3F68
:101DCC0002D13B68002B09D1FB68012283F851201A
:101DDC00FB68002283F85020032358E0FB68DB8F5C
:101DEC009BB2002BC4D138E0FB681B689B6803F0E6
:101DFC000103012B13D1FB681B68DA68FB689B6B32
:101E0C0092B21A80FB689B6B9A1CFB689A63FB6806
:101E1C00DB8F9BB2013B9AB2FB68DA8718E0FEF7C6
:101E2C00B5FE02467B69D31A3A689A4203D83B68DE
:101E3C00B3F1FF3F02D13B68002B09D1FB680122B3
:101E4C0083F85120FB68002283F8502003231EE006
:101E5C00FB68DB8F9BB2002BC6D17A693968F868B6
:101E6C0000F058FA0346002B02D0FB6820225A657A
:101E7C00FB68012283F85120FB68002283F8502074
:101E8C00FB685B6D002B01D0012300E0002318469A
:101E9C001837BD4680BD80B58AB000AFF860B96018
:101EAC007A607B8001237B62FEF770FE3862FB68F0
:101EBC0093F85130FB77FB685B68BB617B88FB82D6
:101ECC00FB7F012B0CD0BB69B3F5827F06D1FB687D
:101EDC009B68002B02D1FB7F042B01D002237FE1F6
:101EEC00BB68002B05D07B68002B02D07B88002BB5
:101EFC0001D1012374E1FB6893F85030012B01D11F
:101F0C0002236DE1FB68012283F85020FB6893F8F3
:101F1C005130DBB2042B03D0FB68052283F851202F
:101F2C00FB6800225A65FB687A689A63FB687A88BA
:101F3C00DA87FB687A889A87FB68BA681A63FB6849
:101F4C007A88DA86FB687A889A86FB6800221A649B
:101F5C00FB6800225A64FB681B681B6803F0400393
:101F6C00402B07D0FB681B681A68FB681B6842F0A3
:101F7C0040021A60FB68DB68B3F5006F7ED1FB682A
:101F8C005B68002B02D0FB8A012B6CD1FB681B6BAE
:101F9C001A88FB681B68DA60FB681B6B9A1CFB6871
:101FAC001A63FB68DB8E9BB2013B9AB2FB68DA8644
:101FBC0059E0FB681B689B6803F00203022B1BD1E2
:101FCC00FB68DB8E9BB2002B16D07B6A012B13D1E6
:101FDC00FB681B6B1A88FB681B68DA60FB681B6B61
:101FEC009A1CFB681A63FB68DB8E9BB2013B9AB2AE
:101FFC00FB68DA8600237B62FB681B689B6803F036
:10200C000103012B19D1FB68DB8F9BB2002B14D081
:10201C00FB681B68DA68FB689B6B92B21A80FB68E2
:10202C009B6B9A1CFB689A63FB68DB8F9BB2013B32
:10203C009AB2FB68DA8701237B62FEF7A7FD0246A2
:10204C003B6AD31A3A6B9A420DD83B6BB3F1FF3F04
:10205C0009D0FB68012283F85120FB68002283F829
:10206C0050200323BCE0FB68DB8E9BB2002BA0D17D
:10207C00FB68DB8F9BB2002B9BD182E0FB685B681B
:10208C00002B02D0FB8A012B71D1FB681A6BFB6809
:10209C001B680C3312781A70FB681B6B5A1CFB689C
:1020AC001A63FB68DB8E9BB2013B9AB2FB68DA8643
:1020BC005DE0FB681B689B6803F00203022B1CD1DC
:1020CC00FB68DB8E9BB2002B17D07B6A012B14D1E3
:1020DC00FB681A6BFB681B680C3312781A70FB6870
:1020EC001B6B5A1CFB681A63FB68DB8E9BB2013BB3
:1020FC009AB2FB68DA8600237B62FB681B689B68DC
:10210C0003F00103012B19D1FB68DB8F9BB2002B71
:10211C0014D0FB681B68DA68FB689B6BD2B21A7030
:10212C00FB689B6B5A1CFB689A63FB68DB8F9BB24A
:10213C00013B9AB2FB68DA8701237B62FEF726FD2E
:10214C0002463B6AD31A3A6B9A4203D83B6BB3F103
:10215C00FF3F02D13B6B002B09D1FB68012283F8B6
:10216C005120FB68002283F85020032338E0FB68E1
:10217C00DB8E9BB2002B9CD1FB68DB8F9BB2002BC0
:10218C0097D13A6A396BF86800F016F90346002BC0
:10219C0008D0FB6820225A65FB68002283F8502087
:1021AC0001231DE0FB689B68002B0AD100233B61D7
:1021BC00FB681B68DB683B61FB681B689B683B61C9
:1021CC003B69FB68012283F85120FB68002283F8ED
:1021DC005020FB685B6D002B01D0012300E0002335
:1021EC0018462837BD4680BD80B483B000AF7860F8
:1021FC007B6893F85130DBB218460C37BD4680BC77
:10220C007047000080B588B000AFF860B9603B60E3
:10221C001346FB71FEF7BAFC0246BB6A9B1A3A687E
:10222C001344FB61FEF7B2FCB861394B1B685B01D0
:10223C001B0DFA6902FB03F37B6154E03B68B3F1BD
:10224C00FF3F50D0FEF7A2FC0246BB69D31AFA69D5
:10225C009A4202D9FB69002B3DD1FB681B685A6876
:10226C00FB681B6822F0E0025A60FB685B68B3F500
:10227C00827F11D1FB689B68B3F5004F04D0FB68DB
:10228C009B68B3F5806F07D1FB681B681A68FB6805
:10229C001B6822F040021A60FB689B6AB3F5005F72
:1022AC000FD1FB681B681A68FB681B6822F400528C
:1022BC001A60FB681B681A68FB681B6842F40052C2
:1022CC001A60FB68012283F85120FB68002283F816
:1022DC005020032317E07B69002B01D10023FB6105
:1022EC007B69013B7B61FB681B689A68BB68134088
:1022FC00BA689A420CBF01230023DBB21A46FB7961
:10230C009A429BD1002318462037BD4680BD00BFA2
:10231C000000002080B586B002AFF860B9607A602A
:10232C00FB685B68B3F5827F11D1FB689B68B3F5E2
:10233C00004F04D0FB689B68B3F5806F07D1FB6836
:10234C001B681A68FB681B6822F040021A60FB6865
:10235C005B68B3F5827F17D1FB689B68B3F5806F20
:10236C0012D17B680093BB6800220121F868FFF74B
:10237C0049FF0346002B1AD0FB685B6D43F020022B
:10238C00FB685A65032313E07B680093BB6800224B
:10239C008021F868FFF736FF0346002B07D0FB6857
:1023AC005B6D43F02002FB685A65032300E00023B9
:1023BC0018461037BD4680BD80B586B002AFF860B8
:1023CC00B9607A607B680093BB6801220221F868CF
:1023DC00FFF718FF0346002B07D0FB685B6D43F03B
:1023EC002002FB685A65032313E07B680093BB68EB
:1023FC0000228021F868FFF705FF0346002B07D069
:10240C00FB685B6D43F02002FB685A65032300E018
:10241C00002318461037BD4680BD000070B500265D
:10242C000C4D0D4C641BA410A64209D100F022F8EF
:10243C0000260A4D0A4C641BA410A64205D170BD9F
:10244C0055F8043B98470136EEE755F8043B98479E
:10245C000136F2E7BC240008BC240008BC240008A8
:10246C00C024000803460244934200D1704703F88D
:10247C00011BF9E7F8B500BFF8BC08BC9E467047D5
:0C248C00F8B500BFF8BC08BC9E467047C5
:10249800000000000000000001020304060708090C
:1024A80002030405060708090A0B0C0D0E0F10108D
:0424B800010200001D
:0424BC0031010008E2
:0424C0000D01000802
:0C24C40000127A0010000000010000006F
:0400000508000A9D48
:00000001FF
